:020000040000FA
:100000000C9498000C94B9000C94B9000C94B900AD
:100010000C94B9000C94B9000C94B9000C94B9007C
:100020000C94B9000C94B9000C94B9000C94B9006C
:100030000C94B9000C94B9000C94B9000C94B9005C
:100040000C94B9000C94B9000C94B9000C94B9004C
:100050000C94B9000C9498060C94B9000C94B90057
:100060000C94B9000C94B9000C94B9000C94B9002C
:100070000C94B9000C942E060C94B9000C94B900A1
:100080000C94B9000C94B9000C94B9000C94B9000C
:100090000C94B9000C94B9000C94B9000C94B900FC
:1000A0000C94B9000C94B9000C94B9000C94B900EC
:1000B0000C94B9000C94B9000C9444060C94B9004B
:1000C0000C94B9000C94B9000C94B9000C94B900CC
:1000D0000C94B9000C94B9000C94B9000C94B900BC
:1000E0000C94B9000C94C5030C9468030C9401049F
:1000F0000C94E3030C940B020C9469040C945B04C1
:100100000C94B3040C94A7030C94E2040C94040222
:100110000C9496040C94AD040C941F040C943D04B0
:100120000C9444050C9411050C949F040C948903C1
:1001300011241FBECFEFD1E2DEBFCDBF00E00CBF68
:1001400013E0A0E0B2E0E6E3F4E100E00BBF02C0A0
:1001500007900D92AA38B107D9F723E0AAE8B3E0D7
:1001600001C01D92AB3BB207E1F70E94BD060C94A3
:10017000190A0C940000813021F4169A179870E047
:100180000AC08F3F19F41698179AF9CF82B18F736E
:1001900082B970E060E07093AD006093AC000895A8
:1001A000813021F4149A159870E00AC08F3F19F439
:1001B0001498159AF9CF82B18F7C82B970E060E013
:1001C0007093AB006093AA000895813021F4129AD5
:1001D000139870E00AC08F3F19F41298139AF9CF60
:1001E00082B1837F82B970E060E07093A900609370
:1001F000A8000895813021F4109A119870E00AC087
:100200008F3F19F41098119AF9CF82B18C7F82B97F
:1002100070E060E07093990060939800089560E04A
:1002200080E00E94FA0060E080E00E94E50060E06B
:1002300080E00E94D00060E080E00C94BB008093DE
:10024000BB0084E88093BC0030E020E08091BC00DB
:1002500087FD06C02F5F3F4F213187E23807B1F796
:1002600081E02131374208F080E0089584EA8093EC
:10027000BC0030E020E08091BC0087FD06C02F5F0D
:100280003F4F213187E23807B1F781E02131374212
:1002900008F080E008951F93CF93DF93C82F162FA7
:1002A000D72F0E9436018823C1F080E80E941F01E9
:1002B0008C2F880F880F8A5F0E941F0180E00E94A8
:1002C0001F0180E00E941F01812F0E941F018D2FBE
:1002D0000E941F0184E98093BC00DF91CF911F91A0
:1002E0000895611104C070E060E00C944B016FEF61
:1002F0007FE0FBCFCF93C82F0E943601882349F0BF
:100300008EE40E941F018C2F0E941F0184E98093BC
:10031000BC00CF9108958F929F92AF92BF92CF92DF
:10032000DF92EF92FF921F93CF93DF93CDB7DEB7AB
:100330002C970FB6F894DEBF0FBECDBF3BE0E32E87
:1003400032E0F32E811104C094E0E92E92E0F92E00
:1003500010E08AE0882E912CA12CB12C411551057A
:1003600061057105A1F480E3F7012C960FB6F894AE
:10037000DEBF0FBECDBFDF91CF911F91FF90EF90F9
:10038000DF90CF90BF90AF909F908F901994CC2426
:10039000C394D12CCC0EDD1EC10ED11CCB01BA01F1
:1003A000A50194010E94C009F42FE52F605D7F4FE5
:1003B0008F4F9F4FD6016C931F5FA9016F2F7E2F28
:1003C000411551056105710511F7112359F01150BF
:1003D000E1E0F0E0EC0FFD1FE10FF11D8081F7017E
:1003E0001995F3CF2C960FB6F894DEBF0FBECDBF94
:1003F000DF91CF911F91FF90EF90DF90CF90BF9052
:10040000AF909F908F9008959091C00095FFFCCF82
:100410008093C60008959091C80095FFFCCF80930B
:10042000CE0008950F931F93CF938C01C0E0F80185
:10043000EC0FF11D8081882321F00E940B02CF5F19
:10044000F6CFCF911F910F9108950F931F93CF93E4
:100450008C01C0E0F801EC0FF11D8081882321F0B0
:100460000E940402CF5FF6CFCF911F910F910895A4
:10047000CF93DF93EC010E9425028FE192E00E946E
:100480002502CE010E9412028FE192E0DF91CF910E
:100490000C9412021092A90360E080E00E947101A6
:1004A00060E081E00E94710182E292E00C943802E7
:1004B00081E08093A90361E080E00E94710161E026
:1004C00081E00E94710181E392E00C943802109265
:1004D000B00022E02093B1002FB7F8941092B20040
:1004E0003091B2003230E0F32FBF615071098109C1
:1004F000910991F71092B1000895CF93C82F8460AD
:100500000E947A0161E070E080E090E00E94670262
:100510008C2F8B7F0E947A0162E370E080E090E094
:10052000CF910C946702CF936860C82FC295C07FAB
:10053000C62B807F862B0E947D028C2FCF910C943E
:100540007D02811180E460E080680E94930262E392
:1005500070E080E090E00C9467020F931F93CF93BC
:100560008C01C0E0F80181918F01882369F0CA30C5
:10057000C9F061E00E94930262E370E080E090E0E5
:100580000E946702CF5FEECFCA3061F061E080E287
:100590000E94930262E370E080E090E00E946702B4
:1005A000CF5FF2CFCF911F910F9108950F931F93BB
:1005B000CF938C01C0E0F801EC0FF11D80818823FE
:1005C00059F061E00E94930262E370E080E090E005
:1005D0000E946702CF5FEFCFCF911F910F910895D7
:1005E000CF92DF92EF92FF926B017C0168EE73E095
:1005F00080E090E00E94670281E0C81AD108E1081B
:10060000F108A1F7FF90EF90DF90CF900895CF937E
:10061000DF93CCE3DFEFE5EDE80FEF3408F034C211
:100620000E2E000CFF0B8827E75EFC4F8F4F0C94BB
:10063000DF0969044405960444054405440544055E
:100640004405440544054405440544054405440562
:100650004405440544054405440544054405AD04EA
:10066000890344059F04E2046803440511051F043F
:1006700044053D04A7034405440544054405B3046B
:10068000C5035B044405440544054405E303010434
:100690004405440544054405440544054405AD04AA
:1006A000890344059F04E2046803440511051F04FF
:1006B00044053D04A7034405440544054405B3042B
:1006C000C5035B044405440544054405E3030104F4
:1006D000C09116026C2F8FEF0E94FA006C2F8FEFE3
:1006E0000E94E5006C2F8FEF0E94D0006C2F8FEFDF
:1006F0000E94BB0086E4809315026FE372E084E001
:1007000092E00E94120A8FE392E0DF91CF910C9465
:100710003802C09116026C2F81E00E94FA006C2F03
:1007200081E00E94E5006C2F81E00E94D0006C2FD8
:1007300081E00E94BB0082E48093150265E472E0D0
:1007400084E092E00E94120A85E492E0DECFC0913C
:1007500016026C2F8FEF0E94FA006C2F8FEF0E9411
:10076000BB006C2F81E00E94E5006C2F81E00E94AD
:10077000D0008CE4809315026FE672E084E092E092
:100780000E94120A8FE692E0C0CFC09116026C2F31
:1007900081E00E94FA006C2F81E00E94BB006C2F68
:1007A0008FEF0E94E5006C2F8FEF0E94D00082E552
:1007B0008093150267E872E084E092E00E94120ADA
:1007C00087E892E0A2CFC09116026C2F81E00E94D0
:1007D000FA006C2F8FEF0E94E5006C2F81E00E94E1
:1007E000D0006C2F8FEF0E94BB0088E5809315022C
:1007F00069E472E084E092E00E94120A89E492E0E7
:1008000084CFC09116026C2F8FEF0E94FA006C2FDC
:1008100081E00E94E5006C2F8FEF0E94D0006C2FCA
:1008200081E00E94BB0089E58093150262E572E0D9
:1008300084E092E00E94120A82E592E066CF60E0D6
:1008400080E00E94FA00C09116026C2F8FEF0E9488
:10085000E50060E080E00E94D0006C2F8FEF0E94E6
:10086000BB0089E4809315026CE572E084E092E0BD
:100870000E94120A84E692E048CFC09116026C2FC3
:100880008FEF0E94FA0060E080E00E94E5006C2F8C
:100890008FEF0E94D00060E080E00E94BB008BE4FC
:1008A0008093150264E772E084E092E00E94120AED
:1008B0008CE792E02ACF0E940F0183E58093150216
:1008C0006DE872E084E092E00E94120A8DE892E006
:1008D0001CCF809116028C3E20F48C5E8093160211
:1008E00002C0D093160282E992E00E942502409154
:1008F000160250E070E060E080E00E948B018FE122
:1009000092E00E94250282E992E00E941202409148
:10091000160250E070E060E081E00E948B018FE100
:1009200092E00E9412028091150275CE809116020B
:10093000803510F08451D2CFC0931602D4CF1092DC
:10094000AA038091A903882321F0DF91CF910C9411
:100950004A02DF91CF910C94580281E08093AA0360
:100960008DE992E0D2CE8091A803882349F01092BD
:10097000A80360E082E00E9471018CEA92E0C5CE9B
:100980008091A703882331F01092A70360E083E0F1
:100990000E9471018091A603882351F01092A60352
:1009A00060E082E00E94710160E083E00E947101DA
:1009B00081E08093A80361E082E00E94710184ECF1
:1009C00092E0A3CE8091A703882349F01092A70359
:1009D00060E083E00E94710182ED92E096CE80910A
:1009E000A803882331F01092A80360E082E00E94FF
:1009F00071018091A603882351F01092A60360E054
:100A000082E00E94710160E083E00E94710181E058
:100A10008093A70361E083E00E9471018BEE92E076
:100A200074CE8091A603882369F01092A60360E03B
:100A300082E00E94710160E083E00E9471018AEF10
:100A400092E063CE8091A803882331F01092A8032E
:100A500060E082E00E9471018091A703882331F059
:100A60001092A70360E083E00E94710181E080930F
:100A7000A60361E082E00E94710161E083E00E94D0
:100A800071018EE093E041CEDF91CF9108958F9276
:100A90009F92AF92BF92FF920F931F93CF93DF93DA
:100AA00000D000D000D01F921F92CDB7DEB76CE807
:100AB00073E084E092E00E94090A892B89F080E0CB
:100AC0000E94A10281E293E00E94D60284E092E0BB
:100AD0000E94AD0264E072E08CE893E00E94120A8A
:100AE00060911B0270911C0280911D0290911E0268
:100AF0000091000210910102209102023091030244
:100B0000601771078207930739F1673E23E0720788
:100B10008105910589F568E273E0CE0101960E9496
:100B2000120A81E00E94A10281E393E00E94D602B2
:100B3000CE0101960E94AD0280911B0290911C0291
:100B4000A0911D02B0911E028093000290930102B9
:100B5000A0930202B09303022B960FB6F894DEBF67
:100B60000FBECDBFDF91CF911F910F91FF90BF902E
:100B7000AF909F908F900895611571058105910543
:100B800059F580E38983E1E0A1E0B0E0AC0FBD1F3F
:100B9000AE0FB11D80E28C93A1E0AE0F21E030E0FA
:100BA0002C0F3D1F2A0F311DD90183E68C93A2E043
:100BB000AE0F81E090E08C0F9D1F8A0F911DDC012C
:100BC0008DE68C93ED5FA1E0B0E0AC0FBD1FAE0FE2
:100BD000B11DFD011082A5CFE0E02AE0822E912C0C
:100BE000A12CB12C0E2F10E0FF24F394FE0E16164C
:100BF000170618061906A4F4A1E0B0E0AC0FBD1F5B
:100C00000A0F1B1FA50194010E94C009605D7F4F60
:100C10008F4F9F4FF8016083B901CA01EF2DE2CFDA
:100C20009FEF9E0F892FA92FA81BA81708F0ACCF04
:100C300061E070E06C0F7D1F6A0F711DDB014C914C
:100C400021E030E02C0F3D1F280F311DD9015C91B0
:100C5000DB015C93D9014C938150E5CF1F920F9239
:100C60000FB60F9211248F939F93809178009091EB
:100C700079009093AD038093AC039F918F910F9077
:100C80000FBE0F901F9018951F920F920FB60F92E4
:100C900011242F933F935F936F937F938F939F9331
:100CA000AF93BF938091260190912701209121015C
:100CB00026FF19C090938B0380938A0380912101B2
:100CC0008F7B8093210180E28ABBBF91AF919F917E
:100CD0008F917F916F915F913F912F910F900FBEF8
:100CE0000F901F90189520918A0330918B03821BDF
:100CF000930B64E770E00E948A09613981E078070C
:100D000010F067EE73E0CB01B0E0A0E08093170233
:100D100090931802A0931902B0931A021092210125
:100D2000809173008F7D8093730010929D03CDCFCF
:100D30001F920F920FB60F9211248F939F93AF9330
:100D4000BF9380919E0390919F03A091A003B091C7
:100D5000A1030196A11DB11D80939E0390939F0353
:100D6000A093A003B093A103BF91AF919F918F91E6
:100D70000F900FBE0F901F90189582E084BD93E0F6
:100D800095BD99EF97BD80936E0078941092C50041
:100D900027E62093C40098E19093C10086E08093F9
:100DA000C2001092CD002093CC009093C900809394
:100DB000CA001092B90088E48093B80084E0809360
:100DC000BC006B9A81E8809390009AE09093910028
:100DD000109299001092980080910101886380938D
:100DE000010189EA8093A0009093A1001092A900CC
:100DF0001092A8001092AB001092AA001092AD00C1
:100E00001092AC008FEF81B912B8259A2D98579A9D
:100E10005F9880910A018D7F80930A0180910B0178
:100E20008D7F80930B0180917E00816080937E0096
:100E300080E480937C008FE880937A0080917A0030
:100E4000806480937A0062E370E080E090E00E942A
:100E5000F00288E30E947A0188E30E947D0265E047
:100E600070E080E090E00E94F00288E30E947A0146
:100E700088E30E947D0266E970E080E090E00E94D5
:100E8000670288E30E947A0188E30E947D0266E996
:100E900070E080E090E00E94670288E20E947A01A0
:100EA00088E20E947D0266E970E080E090E00E94A6
:100EB000670260E088E20E94930262E370E080E0F3
:100EC00090E00E94670260E088E00E94930262E383
:100ED00070E080E090E00E94670260E081E00E94A4
:100EE000930262E070E080E090E00E94F00260E037
:100EF00086E00E94930262E370E080E090E00E944E
:100F0000670260E08CE00E94930262E370E080E0A0
:100F100090E00E9467020E943601882391F080E8E9
:100F20000E941F0180E00E941F0181E20E941F01B8
:100F300084E98093BC0061E070E080E090E00E9472
:100F4000F002C0E070E060E08C2F0E944B01CF5FA8
:100F5000C430C1F780E00E94A10288E393E00E94C0
:100F6000D60281E00E94A10289E493E00E94D602A9
:100F70006CED75E080E090E00E94F00260E081E0BE
:100F80000E94930262E070E080E090E00E94F00234
:100F90000E940F010E9447058AE593E00E943802F3
:100FA00089E693E00E94380287EE282E83E0382EEF
:100FB00094EF892E99249394A12CB12C11E00AE08E
:100FC0008FB7F894C0909E03D0909F03E090A00349
:100FD000F090A1038FBF8091B7039091B803A091C7
:100FE000B903B091BA03A7019601281B390B4A0B2C
:100FF0005B0BDA01C90186399105A105B10508F439
:1010000049C0C092B703D092B803E092B903F092FE
:10101000BA0380919D038823A9F010922101809149
:1010200073008F7D8093730010929D0387EE93E091
:10103000A0E0B0E08093170290931802A0931902E9
:10104000B0931A0210939D035F9A6AE070E080E00B
:1010500090E00E9467025F9810922501109224018F
:1010600090E29ABB80917300806280937300A2EC3F
:10107000A09321018091170290911802A09119026A
:10108000B0911A0280931B0290931C02A0931D0240
:10109000B0931E0240911B0250911C0260911D02F0
:1010A00070911E022091B603453651056105710508
:1010B00054F0222321F110928000109281002D988B
:1010C0001092B6031CC040315105610571050CF04A
:1010D000B4C021110CC0B0E4B09380000093810033
:1010E0003092890020928800259A1093B603C0920E
:1010F000B203D092B303E092B403F092B5038091AF
:10110000AE039091AF03A091B003B091B103A701DA
:101110009601281B390B4A0B5B0BDA01C901843697
:101120009105A105B10550F12FB7C092AE03D09241
:10113000AF03E092B003F092B103F8948091AC0356
:101140009091AD032FBF20917A00206420937A0004
:101150008D3B32E0930708F4AAC01092AB03809154
:10116000AA03882359F08091A9039091AB03992396
:1011700009F4A4C0811102C00E9458020E944705D0
:101180008091A803811109C08091A703811105C036
:101190008091A603882309F4ACC02FB7F89460911E
:1011A0009E0370919F038091A0039091A1032FBF94
:1011B000C090A203D090A303E090A403F090A503F5
:1011C0009B01AC012C193D094E095F0969017A01A7
:1011D00034E1C316D104E104F10408F48AC0609339
:1011E000A2037093A3038093A4039093A50328EE16
:1011F00033E040E050E00E949E099B01AC01243F97
:1012000081E038074105510508F05EC0AFEFBFE04F
:101210000E94E709A50194010E949E09E9018091BD
:10122000A603882309F459C0B90182E00E944B014A
:10123000BE0183E00E944B015CC08091B20390919B
:10124000B303A091B403B091B50326013701481A46
:10125000590A6A0A7B0A211122C0049FC001059F16
:10126000900D1124B0E0A0E0481659066A067B06EE
:1012700008F445CFC092B203D092B303E092B40316
:10128000F092B50320E42093800000938100309217
:10129000890020928800259A1093B60330CF30E55C
:1012A000431651046104710408F429CF04CF843F2C
:1012B000914008F054CF1093AB0351CF882309F429
:1012C0005DCF0E944A025ACFA1E0B0EF0E94F5091B
:1012D000685E7348814C9F4F9DCF8091A8038823FF
:1012E00021F0B90182E00E944B018091A703811196
:1012F0009FCF8091C00087FF04C08091C6000E94EC
:1013000007038091C80087FF5BCE8091CE000E94CA
:10131000070355CEAA1BBB1B51E107C0AA1FBB1F69
:10132000A617B70710F0A61BB70B881F991F5A9571
:10133000A9F780959095BC01CD010895A1E21A2EE0
:10134000AA1BBB1BFD010DC0AA1FBB1FEE1FFF1F69
:10135000A217B307E407F50720F0A21BB30BE40BB9
:10136000F50B661F771F881F991F1A9469F7609500
:101370007095809590959B01AC01BD01CF010895BA
:10138000052E97FB1EF400940E94D70957FD07D045
:101390000E949E0907FC03D04EF40C94D709509587
:1013A0004095309521953F4F4F4F5F4F0895909551
:1013B0008095709561957F4F8F4F9F4F0895EE0FE9
:1013C000FF1F881F8BBF0790F691E02D19940E9494
:1013D000FA09A59F900DB49F900DA49F800D911DBB
:1013E00011240895B7FF0C94E7090E94E709821BB6
:1013F000930B0895A29FB001B39FC001A39F700DEE
:10140000811D1124911DB29F700D811D1124911D0C
:101410000895FB01DC018D91019080190110D9F331
:10142000990B0895FB01DC0101900D920020E1F77A
:101430000895F894FFCFFFFFFFFF53544F50000073
:10144000000000000000000000000053C8E7030097
:1014500000E70300000D0A0044524C3A2057594C53
:1014600041435A4F4E450044524C3A20574C414359
:101470005A4F4E450050525A4F440054594C004266
:101480004F4B2D4C45574F00424F4B2D505241571B
:101490004F00534B4F532D504C00534B4F53205044
:1014A000525A4F442D4C45574F00534B4F532D50DC
:1014B0005000534B4F532050525A4F442D505241DD
:1014C000574F0053544F5000507265646B6F7363F5
:1014D0003A200044524C3A2054525942204155542B
:1014E0004F004B494552554E4B3A204C45575920D9
:1014F00057594C41435A4F4E59004B494552554E4E
:101500004B3A204C455759004B494552554E4B3AA2
:101510002050524157592057594C41435A4F4E5928
:10152000004B494552554E4B3A20505241575900B5
:1015300041574152594A4E453A2057594C41435A16
:101540004F4E450041574152594A4E453A20574C5B
:1015500041435A4F4E45004B6965723A2000427232
:10156000616B2F4D617800447973743A200020201C
:1015700053414D4F43484F445A494B2020200020AF
:101580002020474F544F5759203A2920202020002F
:101590003D3D3D20474F544F5759203D3D3D00466E
:1015A0002F422F4C2F522F582F592F492F4B2F534B
:1015B0002F2B2F2D2F442F412F512F452F48000027
:020000040003F7
:10E000000D9489F10D94B2F10D94B2F10D94B2F129
:10E010000D94B2F10D94B2F10D94B2F10D94B2F1F0
:10E020000D94B2F10D94B2F10D94B2F10D94B2F1E0
:10E030000D94B2F10D94B2F10D94B2F10D94B2F1D0
:10E040000D94B2F10D94B2F10D94B2F10D94B2F1C0
:10E050000D94B2F10D94B2F10D94B2F10D94B2F1B0
:10E060000D94B2F10D94B2F10D94B2F10D94B2F1A0
:10E070000D94B2F10D94B2F10D94B2F10D94B2F190
:10E080000D94B2F10D94B2F10D94B2F10D94B2F180
:10E090000D94B2F10D94B2F10D94B2F10D94B2F170
:10E0A0000D94B2F10D94B2F10D94B2F10D94B2F160
:10E0B0000D94B2F10D94B2F10D94B2F10D94B2F150
:10E0C0000D94B2F10D94B2F10D94B2F10D94B2F140
:10E0D0000D94B2F10D94B2F10D94B2F10D94B2F130
:10E0E0000D94B2F141546D656761323536300041AF
:10E0F000726475696E6F206578706C6F72657220DE
:10E1000073746B3530305632206279204D4C530099
:10E11000426F6F746C6F616465723E004875683F52
:10E1200000436F6D70696C6564206F6E203D200048
:10E130004350552054797065202020203D20005FF9
:10E140005F4156525F415243485F5F3D2000415658
:10E1500052204C696243205665723D20004743437C
:10E160002056657273696F6E203D20004350552024
:10E1700049442020202020203D20004C6F7720663D
:10E18000757365202020203D20004869676820665F
:10E190007573652020203D200045787420667573D6
:10E1A00065202020203D20004C6F636B2066757336
:10E1B000652020203D20004D617220203720323024
:10E1C000313300312E362E3800342E332E350056A2
:10E1D00023202020414444522020206F7020636F70
:10E1E00064652020202020696E73747275637469E1
:10E1F0006F6E2061646472202020496E74657272B3
:10E20000757074006E6F20766563746F7200726A49
:10E210006D702020006A6D70200057686174207056
:10E220006F72743A00506F7274206E6F7420737541
:10E2300070706F72746564004D7573742062652030
:10E2400061206C6574746572002000577269747483
:10E25000696E672045450052656164696E672045B7
:10E26000450045452065727220636E743D00504F35
:10E27000525400303D5A65726F2061646472003FF1
:10E280003D43505520737461747300403D454550C3
:10E29000524F4D207465737400423D426C696E6B41
:10E2A000204C454400453D44756D70204545505215
:10E2B0004F4D00463D44756D7020464C415348001B
:10E2C000483D48656C70004C3D4C69737420492F83
:10E2D0004F20506F72747300513D51756974005234
:10E2E0003D44756D702052414D00563D73686F7707
:10E2F00020696E7465727275707420566563746FF0
:10E30000727300593D506F727420626C696E6B00BD
:10E310002A0011241FBECFEFD1E2DEBFCDBF01E046
:10E320000CBF12E0A0E0B2E0EEE1FDEF03E00BBFB6
:10E3300002C007900D92A030B107D9F712E0A0E01B
:10E34000B2E001C01D92AE30B107E1F70F9460F367
:10E350000D948DFE01E20EBF0FEF0DBF11241FBE05
:10E360000D9460F30D9400F020E030E040ED57E0B4
:10E3700005C0FA013197F1F72F5F3F4F2817390792
:10E38000C0F308959C01260F311DC901A0E0B0E043
:10E390002F5F3F4FABBFFC018791882361F08093D3
:10E3A000C6008091C00086FFFCCF8091C0008064D1
:10E3B0008093C000EACF08958DE08093C6008091DD
:10E3C000C00086FFFCCF8091C00080648093C000B5
:10E3D0008AE08093C6008091C00086FFFCCF8091C8
:10E3E000C00080648093C00008950F94C2F10F9420
:10E3F000DCF10895FC019081992359F09093C600B7
:10E400008091C00086FFFCCF8091C0008064809323
:10E41000C0003196992379F70895282F982F929567
:10E420009F70892F805D8A3308F0895F8093C600D2
:10E430008091C00086FFFCCF8091C00080648093F3
:10E44000C000822F8F70982F905D9A3308F0995FEB
:10E450009093C6008091C00086FFFCCF8091C000E1
:10E4600080648093C00008959C01FB01853691056E
:10E470001CF46330710594F0C90164E670E00F94F8
:10E480002EFE605D7F4F6093C6008091C00086FFC6
:10E49000FCCF8091C00080648093C0002B30310598
:10E4A00014F43297B4F0C90164E670E00F942EFEC4
:10E4B0006AE070E00F942EFE605D7F4F6093C600AF
:10E4C0008091C00086FFFCCF8091C0008064809363
:10E4D000C000C9016AE070E00F942EFEC0968093E0
:10E4E000C6008091C00086FFFCCF8091C000806490
:10E4F0008093C00008951F93182F8EE692EE60E07F
:10E500000F94C2F11093C6008091C00086FFFCCF2B
:10E510008091C00080648093C0000F94DCF11F9153
:10E5200008952F923F924F925F926F927F928F92B7
:10E530009F92AF92BF92CF92DF92EF92FF920F9392
:10E540001F93DF93CF93CDB7DEB762970FB6F894E2
:10E55000DEBF0FBECDBF382E622ECA01DB015C01CB
:10E560006D01772420E2222E2E010894411C511CBB
:10E570008BC081E0A81680E0B80681E0C80680E084
:10E58000D80628F0C601AA27BB270F940DF2BB2797
:10E59000AD2D9C2D8B2D0F940DF28A2D0F940DF225
:10E5A0002092C6008091C00086FFFCCF8091C00001
:10E5B00080648093C0009DE29093C6008091C0006B
:10E5C00086FFFCCF8091C00080648093C0002092C1
:10E5D000C6008091C00086FFFCCF8091C00080649F
:10E5E0008093C00019828601750188249924A1E0D6
:10E5F0003A1651F03A1620F0B2E03B1661F409C029
:10E600000BBFF701779007C0C7010F9477FE782EF4
:10E6100002C0F7017080872D0F940DF22092C60082
:10E620008091C00086FFFCCF8091C0008064809301
:10E63000C000872D8052F401EF70F0708F3520F408
:10E64000E40DF51D708204C0E40DF51D8EE280839B
:10E650000894E11CF11C011D111D0894811C911CE2
:10E6600090E18916910409F0C2CF80E190E0A0E02A
:10E67000B0E0A80EB91ECA1EDB1E198AC2010F9493
:10E68000FAF10F94DCF16A94662009F072CF629679
:10E690000FB6F894DEBF0FBECDBFCF91DF911F91B3
:10E6A0000F91FF90EF90DF90CF90BF90AF909F9031
:10E6B0008F907F906F905F904F903F902F90089534
:10E6C0002F923F924F925F926F927F928F929F9282
:10E6D000AF92BF92CF92DF92EF92FF920F931F9370
:10E6E000DF93CF93CDB7DEB7CD53D1400FB6F894BB
:10E6F000DEBF0FBECDBF01E20EBF0FEF0DBF94B75F
:10E70000F894A89514BE80916000886180936000A1
:10E7100010926000789493FF05C0E0910002F091A0
:10E7200001021995279A2F9A8091C00082608093E8
:10E73000C00080E18093C40088E18093C1000000A4
:10E74000EE24FF24870144E0A42EB12CCC24DD2448
:10E7500024C0C5010197F1F70894E11CF11C011DCB
:10E76000111D21E2E2162EE4F20620E0020720E06D
:10E77000120718F031E0C32ED12CC801B70127ECE5
:10E780003BE140E050E00F9441FE611571058105C9
:10E79000910519F485B1805885B98091C00087FD35
:10E7A00003C0C114D104A9F2A6014F5F5F4FC25E3E
:10E7B000DE4F59834883CE51D140C25EDE4F8881FF
:10E7C0009981CE51D140019711F00D9410FEC05D9A
:10E7D000DE4F19821882C053D14060E0C15DDE4F28
:10E7E0001882CF52D14088249924C35DDE4F19820C
:10E7F0001882CD52D140C05EDE4F188219821A8233
:10E800001B82C052D140CE5CDE4F188219821A8220
:10E810001B82C253D140EE24FF2487010BBFF701B6
:10E8200007911691C45CDE4F19830883CC53D14005
:10E830000D940BFEC25EDE4F28813981CE51D1404E
:10E840002130310509F52091C600C25EDE4F1982E4
:10E850001882CE51D14022C02F5F3F4F4F4F5F4FA4
:10E86000213082E138078AE7480780E0580780F0C6
:10E87000C45CDE4FE881F981CC53D140EF5FFF4F9C
:10E8800019F0EE27FF27099420E030E040E050E047
:10E890008091C00087FFE0CF2091C600C35DDE4FAE
:10E8A00048815981CD52D1404F5F5F4FC35DDE4FEC
:10E8B00059834883CD52D140213209F063C64A3092
:10E8C000510508F05FC60894811C911C53E0851621
:10E8D000910409F059C600E010E018C081E280936D
:10E8E000C6008091C00086FFFCCF8091C00080648C
:10E8F0008093C0002F5F3F4F2931310579F70F9486
:10E90000DCF10F5F1F4F0530110519F020E030E0FA
:10E91000E5CF10920A0210920B0210920C02109294
:10E920000D02109206021092070210920802109235
:10E930000902109202021092030210920402109235
:10E9400005028FEE90EE60E00F94F5F180E191EE1C
:10E9500060E00F94C2F18091C00087FFFCCF9091DE
:10E96000C600903608F09F759032B8F09093C600BC
:10E970008091C00086FFFCCF8091C00080648093AE
:10E98000C000A0E2A093C6008091C00086FFFCCF2B
:10E990008091C00080648093C000983409F4D7C18E
:10E9A0009934B8F4923409F459C1933458F490333B
:10E9B00019F1903308F4E3C59F33A1F1903409F0C5
:10E9C000DEC5BDC0953409F470C1963409F0D7C5D1
:10E9D00098C1923509F42BC2933538F49C3409F46C
:10E9E000F5C1913509F0CBC518C2963509F445C279
:10E9F000993509F0C4C567C483E792EE62E00F94CD
:10EA0000F5F110920602109207021092080210927D
:10EA1000090210920A0210920B0210920C0210923C
:10EA20000D0213C18FE792EE62E00F94F5F18FEEC5
:10EA300090EE60E00F94F5F181E291EE60E00F94CA
:10EA4000C2F187EB91EE60E00F94F5F180E391EE77
:10EA500060E00F94C2F184EE90EE60E00F94F5F167
:10EA60008FE391EE60E00F94C2F186E090E061E008
:10EA700070E00F9434F20F94DCF18DE591EE60E0DC
:10EA80000F94C2F189EC91EE60E00F94F5F18EE401
:10EA900091EE60E00F94C2F183EC91EE60E00F9490
:10EAA000F5F18CE691EE60E00F94C2F18EE10F94E7
:10EAB0000DF288E90F940DF281E00F940DF20F949E
:10EAC000DCF18BE791EE60E00F94C2F119E0E0E039
:10EAD000F0E010935700E4918E2F0F940DF20F94F5
:10EAE000DCF18AE891EE60E00F94C2F1E3E0F0E03F
:10EAF00010935700E4918E2F0F940DF20F94DCF1D8
:10EB000089E991EE60E00F94C2F1E2E0F0E0109349
:10EB10005700E4918E2F0F940DF20F94DCF188EAE8
:10EB200091EE60E00F94C2F1E1E0F0E01093570045
:10EB30001491812F0F940DF20F94DCF107CF8BE825
:10EB400092EE62E00F94F5F18BE492EE60E00F94A8
:10EB5000F5F10F94DCF100E010E019C0C8016F2D51
:10EB60000F947FFEFF2031F489E492EE60E00F9471
:10EB7000C2F10BC0F092C6008091C00086FFFCCFAE
:10EB80008091C00080648093C0000F5F1F4FC80158
:10EB900081519F41A0E0B0E0ABBFFC01F790BAE229
:10EBA000FB1621F0E2E000301E07C1F60F94DCF105
:10EBB0000F94DCF187E592EE60E00F94F5F10F948D
:10EBC000DCF1CC24DD2400E010E01EC0C8010F946D
:10EBD00077FEF82E882331F489E492EE60E00F94FA
:10EBE000C2F10BC08093C6008091C00086FFFCCFAD
:10EBF0008091C00080648093C000FE1419F00894D6
:10EC0000C11CD11C0F5F1F4FC80181519F41A0E063
:10EC1000B0E0ABBFFC01E790FAE2EF1621F022E092
:10EC20000030120799F60F94DCF10F94DCF182E6C4
:10EC300092EE60E00F94C2F1C60161E070E00F94C3
:10EC400034F20F94DCF10F94DCF110920202109276
:10EC50000302109204021092050278CE89E992EE26
:10EC600062E00F94F5F1279A2F9A16C02F9880E052
:10EC700090E0E0EDF7E03197F1F7019684369105E9
:10EC8000C1F72F9A80E090E0E0EDF7E03197F1F7DF
:10EC9000019684369105C1F78091C00087FFE6CFC9
:10ECA0008091C00087FFFCCF64C485EA92EE62E0E9
:10ECB0000F94F5F140910202509103026091040219
:10ECC0007091050281E020E10F9491F2809102029F
:10ECD00090910302A0910402B091050280509F4FD1
:10ECE000AF4FBF4F8093020290930302A0930402A0
:10ECF000B093050280509041A040B04008F426CE69
:10ED0000A4CF83EB92EE62E00F94F5F140910602FE
:10ED100050910702609108027091090280E020E1A1
:10ED20000F9491F28091060290910702A09108023F
:10ED3000B091090280509F4FAF4FBF4F80930602A2
:10ED400090930702A0930802B0930902FFCD80ECD4
:10ED500092EE62E00F94F5F183E792EE60E00F949B
:10ED6000F5F18FE792EE60E00F94F5F18BE892EE0B
:10ED700060E00F94F5F189E992EE60E00F94F5F10F
:10ED800085EA92EE60E00F94F5F183EB92EE60E09D
:10ED90000F94F5F180EC92EE60E00F94F5F187ECC2
:10EDA00092EE60E00F94F5F188ED92EE60E00F9442
:10EDB000F5F18FED92EE60E00F94F5F18AEE92EEB0
:10EDC00060E00F94F5F183E093EEBDCD87EC92EE19
:10EDD00062E00F94F5F181E40F947BF282E40F94EA
:10EDE0007BF283E40F947BF284E40F947BF285E45E
:10EDF0000F947BF286E40F947BF287E40F947BF20E
:10EE000088E40F947BF28AE40F947BF28BE40F94F6
:10EE10007BF28CE40F947BF299CD88ED92EE62E068
:10EE20000F94F5F1772473948824992409C48FED05
:10EE300092EE62E00F94F5F140910A0250910B02BC
:10EE400060910C0270910D0282E020E10F9491F22A
:10EE500080910A0290910B02A0910C02B0910D02D8
:10EE600080509F4FAF4FBF4F80930A0290930B0289
:10EE7000A0930C02B0930D0269CD8AEE92EE62E08F
:10EE80000F94F5F184EE90EE60E00F94F5F18FECC5
:10EE900091EE60E00F94F5F1662477244301CC5D98
:10EEA000DE4F19821882C452D140D401C301B695F5
:10EEB000A79597958795CA5DDE4F88839983AA8326
:10EEC000BB83C652D140CC5DDE4FA881B981C4520C
:10EED000D1401196CC5DDE4FB983A883C452D14096
:10EEE000CD0162E070E00F9434F2B0E2B093C6005E
:10EEF0008091C00086FFFCCF8091C0008064809329
:10EF0000C000EDE2E093C6008091C00086FFFCCF18
:10EF10008091C00080648093C000F0E2F093C6004E
:10EF20008091C00086FFFCCF8091C00080648093F8
:10EF3000C000CA5DDE4FE880F9800A811B81C6529D
:10EF4000D140BB27A12F902F8F2D0F940DF2CA5DBA
:10EF5000DE4F8881C652D1400F940DF2B0E2FB2EF5
:10EF6000F092C6008091C00086FFFCCF8091C00067
:10EF700080648093C0000DE30093C6008091C000C0
:10EF800086FFFCCF8091C00080648093C00010E2B7
:10EF90001093C6008091C00086FFFCCF8091C00016
:10EFA00080648093C0008BBEF3012791C65DDE4F65
:10EFB0002883CA52D140A22EBB24CC24DD2408943D
:10EFC000611C711C811C911C8BBEF3018791282E42
:10EFD0003324442455240894611C711C811C911C09
:10EFE0008BBEF3013791C55DDE4F3883CB52D140E4
:10EFF0000894611C711C811C911C8BBEF30147910C
:10F00000C45DDE4F4883CC52D140ADEFEA2EAFEF66
:10F01000FA2EAFEF0A2FAFEF1A2F6E0C7F1C801E57
:10F02000911E142D032DF22CEE24EA0CFB1C0C1D5A
:10F030001D1D0F940DF220E22093C6008091C000A8
:10F0400086FFFCCF8091C00080648093C000C65DC5
:10F05000DE4F8881CA52D1400F940DF230E23093D6
:10F06000C6008091C00086FFFCCF8091C000806404
:10F070008093C000C45DDE4F8881CC52D1400F9494
:10F080000DF240E24093C6008091C00086FFFCCFA5
:10F090008091C00080648093C000C55DDE4F888190
:10F0A000CB52D1400F940DF250E25093C6008091A4
:10F0B000C00086FFFCCF8091C00080648093C000B8
:10F0C0008FEFE8168FEFF80680E0080780E018075A
:10F0D00031F484E092EE60E00F94C2F1DFC0D80119
:10F0E000C7018070907CA070B0708050904CA040A0
:10F0F000B040D1F52FEF3FE340E050E0E222F322B1
:10F1000004231523CA5DDE4FA880B980CA80DB8046
:10F11000C652D140AE0CBF1CC01ED11EAA0CBB1CD7
:10F12000CC1CDD1C8EE092EE60E00F94C2F1BB2798
:10F13000A12F902F8F2D0F940DF28E2D0F940DF285
:10F1400030E23093C6008091C00086FFFCCF8091F2
:10F15000C00080648093C0004EE34093C60080915D
:10F16000C00086FFFCCF87C08EE09EEFA0E0B0E03D
:10F17000E822F9220A231B239CE0E91694E9F90608
:10F1800090E0090790E0190709F088C0C45DDE4FE0
:10F19000A881CC52D140EA2EFF2400E010E0102FCD
:10F1A0000F2DFE2CEE24C55DDE4FB881CB52D14031
:10F1B000EB0EF11C011D111DD601C501817090706F
:10F1C000A070B070DC0199278827E80EF91E0A1F8D
:10F1D0001B1F20EF30E040E050E0A222B322C42207
:10F1E000D52241E1AA0CBB1CCC1CDD1C4A95D1F7F1
:10F1F000EA0CFB1C0C1D1D1D81E090E0A0E0B0E0BE
:10F20000282239224A225B2235E1220C331C441C7D
:10F21000551C3A95D1F7E20CF31C041D151D57013E
:10F220006801AA0CBB1CCC1CDD1C85E192EE60E0E1
:10F230000F94C2F1C801AA27BB270F940DF2BB2778
:10F24000A12F902F8F2D0F940DF28E2D0F940DF274
:10F2500090E29093C6008091C00086FFFCCF809121
:10F26000C00080648093C000AEE3A093C60080918C
:10F27000C00086FFFCCF8091C00080648093C000F6
:10F28000C601AA27BB270F940DF2BB27AD2D9C2DDD
:10F290008B2D0F940DF28A2D0F940DF20F94DCF14B
:10F2A000CC5DDE4FE881F981C452D140F99709F471
:10F2B0004DCBF4E0EF2EF12C012D112D6E0C7F1CA7
:10F2C000801E911EF2CD83E093EE62E00F94F5F183
:10F2D0008AE192EE60E00F94C2F18091C00087FF56
:10F2E000FCCF1091C6001F751093C6008091C0001E
:10F2F00086FFFCCF8091C00080648093C0000F9493
:10F30000DCF1812F81548A3108F036C1163409F4BA
:10F3100095C0173490F4133409F44EC0143430F40B
:10F320001134F1F0123409F01DC130C0143409F465
:10F3300059C0153409F016C16BC01A3409F4C4C0A1
:10F340001B3438F4173409F48FC0183409F00AC19B
:10F35000A1C01B3409F4D2C01C3409F003C1E8C0B9
:10F360008FEF81B90DC082B1809582B980E090E0C5
:10F37000E0EDF7E03197F1F70196883C9105C1F790
:10F380008091C00087FFEFCF12B8EFC08FEF84B934
:10F390000DC085B1809585B980E090E0E0EDF7E0A3
:10F3A0003197F1F70196883C9105C1F78091C00033
:10F3B00087FFEFCF15B8D9C08FEF87B90DC088B1DF
:10F3C000809588B980E090E0E0EDF7E03197F1F7C3
:10F3D0000196883C9105C1F78091C00087FFEFCF6F
:10F3E00018B8C3C08FEF8AB90DC08BB180958BB9A7
:10F3F00080E090E0E0EDF7E03197F1F70196883C8E
:10F400009105C1F78091C00087FFEFCF1BB8ADC059
:10F410008FEF8DB90DC08EB180958EB980E090E0F0
:10F42000E0EDF7E03197F1F70196883C9105C1F7DF
:10F430008091C00087FFEFCF1EB897C08FEF80BBD1
:10F440000DC081B3809581BB80E090E0E0EDF7E0F6
:10F450003197F1F70196883C9105C1F78091C00082
:10F4600087FFEFCF11BA81C08FEF83BB0DC084B38C
:10F47000809584BB80E090E0E0EDF7E03197F1F714
:10F480000196883C9105C1F78091C00087FFEFCFBE
:10F4900014BA6BC08FEF809301010FC080910201FD
:10F4A00080958093020180E090E0E0EDF7E03197F5
:10F4B000F1F70196883C9105C1F78091C00087FF64
:10F4C000EDCF1092020151C08FEF809304010FC065
:10F4D0008091050180958093050180E090E0E0ED4A
:10F4E000F7E03197F1F70196883C9105C1F78091DB
:10F4F000C00087FFEDCF1092050137C08FEF8093DA
:10F5000007010FC08091080180958093080180E079
:10F5100090E0E0EDF7E03197F1F70196883C910536
:10F52000C1F78091C00087FFEDCF109208011DC088
:10F530008FEF80930A010FC080910B01809580931B
:10F540000B0180E090E0E0EDF7E03197F1F70196F4
:10F55000883C9105C1F78091C00087FFEDCF1092E4
:10F560000B0103C085E292EEEEC98091C00087FFD7
:10F57000FCCF8091C600EAC988E392EEE4C98CE131
:10F5800091EEE1C988249924933011F1943028F444
:10F59000913089F09230B8F408C0953061F195301F
:10F5A000F0F0963009F048C043C02B3109F042C951
:10F5B00091E06BE13FC96227C15DDE4F2883CF52E6
:10F5C000D14092E037C9B22FA0E0622793E032C960
:10F5D000822F90E0A82BB92B622794E02BC92E3004
:10F5E00009F039C3622795E0C05DDE4F19821882A9
:10F5F000C053D1401FC9E1E0F0E0EC0FFD1FC05D3A
:10F60000DE4F08811981C053D140E00FF11F2083E4
:10F610000F5F1F4FC05DDE4F19830883C053D14079
:10F6200062270A171B0709F005C9D80196E002C92D
:10F63000261709F010C303C0973009F0FBC87724E0
:10F640009981933109F412C19431C8F4963009F4C8
:10F65000D8C0973050F4923009F406C1933009F4C1
:10F660006DC0913009F059C253C0913109F477C08F
:10F67000923108F0BBC0903109F04FC2F5C098310B
:10F6800009F487C0993150F4953109F4EFC09531F0
:10F6900008F4C6C1963109F040C2C2C19A3109F4DA
:10F6A0006CC09A3108F491C09B3109F45BC09D3164
:10F6B00009F033C29D81903359F48F81882311F46E
:10F6C0009EE11CC0813011F091E018C098E916C08D
:10F6D000892F807591F0903539F4E0E0F0E089E011
:10F6E0008093570094910AC0983539F4E3E0F0E034
:10F6F00089E080935700949101C090E01A821B82A8
:10F700008D818C831D829E831F8227E030E009C299
:10F710001A8288E08B8381E48C8386E58D8382E581
:10F720008E8389E48F8383E5888780E589878FE5E9
:10F730008A8782E38B872BE030E0F3C18A818139AD
:10F7400041F0823941F0803911F48FE005C080E04A
:10F7500003C082E001C08AE01A828B8344C0772410
:10F76000739482C08D81882311F48EE12CC0813086
:10F7700011F081E028C088E926C01A82E1E0F0E0BB
:10F7800089E08093570084918B831C8224E030E0D1
:10F79000C8C18B81803589F48C81883039F4E2E0EE
:10F7A000F0E089E08093570084910DC0E0E0F0E044
:10F7B00089E080935700849106C0E3E0F0E089E09F
:10F7C0008093570084911A82DFCF8D81836C99E0FA
:10F7D000E1E0F0E0082E90935700E89507B600FCB2
:10F7E000FDCF1A821B8223E030E09BC180EC8A832C
:10F7F000CE5CDE4F188219821A821B82C253D1401E
:10F800008EC18A8190E0A0E0B0E0582F44273327D2
:10F8100022278B8190E0A0E0B0E0DC0199278827C7
:10F82000282B392B4A2B5B2B8D8190E0A0E0B0E098
:10F83000282B392B4A2B5B2B8C8190E0A0E0B0E089
:10F84000BA2FA92F982F8827282B392B4A2B5B2BCF
:10F85000220F331F441F551FC05EDE4F288339839C
:10F860004A835B83C052D1401A8259C13A81C95C34
:10F87000DE4F3883C753D140CA5CDE4F1882C6536F
:10F88000D1408B81C82EDD24CA5CDE4F488159816E
:10F89000C653D140C42AD52A933109F082C0CE5C28
:10F8A000DE4F88819981AA81BB81C253D1408050AB
:10F8B000904CA340B04030F583E0CE5CDE4FE88052
:10F8C000F9800A811B81C253D140F70100935B008C
:10F8D00080935700E89507B600FCFDCFCE5CDE4F65
:10F8E000088119812A813B81C253D14000501F4FAA
:10F8F0002F4F3F4FCE5CDE4F088319832A833B8313
:10F90000C253D140C05EDE4F488159816A817B81FC
:10F91000C052D140DE011B9631E08C9111962C91A2
:10F9200011971296C75CDE4F2883C953D140C85C3B
:10F93000DE4F1882C853D14090E0C85CDE4FE881AA
:10F94000F981C853D1408E2B9F2B0C01FA01609393
:10F950005B0030935700E89511244E5F5F4F6F4F67
:10F960007F4F0EEFE02E0FEFF02ECE0CDF1CC114F8
:10F97000D10499F685E0C05EDE4F088119812A81A5
:10F980003B81C052D140F80120935B008093570027
:10F99000E89507B600FCFDCF81E180935700E8951C
:10F9A00035C0C05EDE4F88819981AA81BB81C0527B
:10F9B000D140B695A795979587957C018601ABE0D8
:10F9C000AA2EB12CAC0EBD1E0BC0D5016D915D01F0
:10F9D000C7010F947FFE0894E11CF11C01501040F8
:10F9E0000115110591F7A60160E070E0440F551F65
:10F9F000661F771FC05EDE4FE880F9800A811B8199
:10FA0000C052D1404E0D5F1D601F711F1A82C05E33
:10FA1000DE4F488359836A837B83C052D1407FC0C5
:10FA2000FA80C55CDE4FF882CB53D140C65CDE4F16
:10FA30001882CA53D1408B81C82EDD24C65CDE4FAC
:10FA400008811981CA53D140C02AD12A1A828981DA
:10FA5000BE016D5F7F4F843121F59601C05EDE4FA0
:10FA6000E880F9800A811B81C052D1400BBFF701A9
:10FA700087919691DB018C9311969C936E5F7F4FDB
:10FA8000D801C7010296A11DB11DC05EDE4F88835B
:10FA90009983AA83BB83C052D14022503040F1F6F3
:10FAA00036C0C05EDE4F288139814A815B81C052F9
:10FAB000D1400894C108D108760100E010E0089414
:10FAC000C11CD11C0894E11CF11C011D111DE20E8A
:10FAD000F31E041F151F21BDBB27A52F942F832FB5
:10FAE00082BD2F5F3F4F4F4F5F4FF89A80B5DB01CC
:10FAF0008D93BD012E153F054007510761F7C05E8C
:10FB0000DE4F288339834A835B83C052D1409601FC
:10FB10002D5F3F4FFB01108204C080EC8A8322E0FE
:10FB200030E08BE18093C6008091C00086FFFCCF5F
:10FB30008091C00080648093C000C15DDE4FF88179
:10FB4000CF52D140F093C6008091C00086FFFCCF19
:10FB50008091C00080648093C000432F3093C60022
:10FB60008091C00086FFFCCF8091C00080648093AC
:10FB7000C000922F2093C6008091C00086FFFCCF6A
:10FB80008091C00080648093C0008EE08093C600A6
:10FB90008091C00086FFFCCF8091C000806480937C
:10FBA000C00065E1C15DDE4FE880CF52D1406E25D7
:10FBB00069276427FE01319610C090819093C6009A
:10FBC0008091C00086FFFCCF31968091C000806498
:10FBD0008093C0006927215030402115310569F715
:10FBE0006093C6008091C00086FFFCCF8091C0006A
:10FBF00080648093C00085B1805885B9772081F4F6
:10FC0000C15DDE4F0881CF52D1400F5FC15DDE4F35
:10FC10000883CF52D14090E0A0E0B0E00D941AF4F8
:10FC200027982F9880E090E020ED37E0F901319798
:10FC3000F1F7019684369105C9F700008091C00064
:10FC40008D7F8093C00081E180935700E895EE2777
:10FC5000FF270994FFCF90E00D941AF497FB092E2B
:10FC600007260AD077FD04D02ED006D000201AF443
:10FC7000709561957F4F0895F6F7909581959F4F08
:10FC80000895A1E21A2EAA1BBB1BFD010DC0AA1FDD
:10FC9000BB1FEE1FFF1FA217B307E407F50720F0F5
:10FCA000A21BB30BE40BF50B661F771F881F991F70
:10FCB0001A9469F760957095809590959B01AC01B9
:10FCC000BD01CF010895AA1BBB1B51E107C0AA1FAC
:10FCD000BB1FA617B70710F0A61BB70B881F991FED
:10FCE0005A95A9F780959095BC01CD010895F99991
:10FCF000FECF92BD81BDF89A992780B50895262F31
:10FD0000F999FECF1FBA92BD81BD20BD0FB6F89400
:0EFD1000FA9AF99A0FBE01960895F894FFCF63
:00000001FF
