:100000000C9498000C94B9000C94B9000C94B900AD
:100010000C94B9000C94B9000C94B9000C94B9007C
:100020000C94B9000C94B9000C94B9000C94B9006C
:100030000C94B9000C94B9000C94B9000C94B9005C
:100040000C94B9000C94B9000C94B9000C94B9004C
:100050000C94B9000C9498060C94B9000C94B90057
:100060000C94B9000C94B9000C94B9000C94B9002C
:100070000C94B9000C942E060C94B9000C94B900A1
:100080000C94B9000C94B9000C94B9000C94B9000C
:100090000C94B9000C94B9000C94B9000C94B900FC
:1000A0000C94B9000C94B9000C94B9000C94B900EC
:1000B0000C94B9000C94B9000C9444060C94B9004B
:1000C0000C94B9000C94B9000C94B9000C94B900CC
:1000D0000C94B9000C94B9000C94B9000C94B900BC
:1000E0000C94B9000C94C5030C9468030C9401049F
:1000F0000C94E3030C940B020C9469040C945B04C1
:100100000C94B3040C94A7030C94E2040C94040222
:100110000C9496040C94AD040C941F040C943D04B0
:100120000C9444050C9411050C949F040C948903C1
:1001300011241FBECFEFD1E2DEBFCDBF00E00CBF68
:1001400013E0A0E0B2E0E6E3F4E100E00BBF02C0A0
:1001500007900D92AA38B107D9F723E0AAE8B3E0D7
:1001600001C01D92AB3BB207E1F70E94BD060C94A3
:10017000190A0C940000813021F4169A179870E047
:100180000AC08F3F19F41698179AF9CF82B18F736E
:1001900082B970E060E07093AD006093AC000895A8
:1001A000813021F4149A159870E00AC08F3F19F439
:1001B0001498159AF9CF82B18F7C82B970E060E013
:1001C0007093AB006093AA000895813021F4129AD5
:1001D000139870E00AC08F3F19F41298139AF9CF60
:1001E00082B1837F82B970E060E07093A900609370
:1001F000A8000895813021F4109A119870E00AC087
:100200008F3F19F41098119AF9CF82B18C7F82B97F
:1002100070E060E07093990060939800089560E04A
:1002200080E00E94FA0060E080E00E94E50060E06B
:1002300080E00E94D00060E080E00C94BB008093DE
:10024000BB0084E88093BC0030E020E08091BC00DB
:1002500087FD06C02F5F3F4F213187E23807B1F796
:1002600081E02131374208F080E0089584EA8093EC
:10027000BC0030E020E08091BC0087FD06C02F5F0D
:100280003F4F213187E23807B1F781E02131374212
:1002900008F080E008951F93CF93DF93C82F162FA7
:1002A000D72F0E9436018823C1F080E80E941F01E9
:1002B0008C2F880F880F8A5F0E941F0180E00E94A8
:1002C0001F0180E00E941F01812F0E941F018D2FBE
:1002D0000E941F0184E98093BC00DF91CF911F91A0
:1002E0000895611104C070E060E00C944B016FEF61
:1002F0007FE0FBCFCF93C82F0E943601882349F0BF
:100300008EE40E941F018C2F0E941F0184E98093BC
:10031000BC00CF9108958F929F92AF92BF92CF92DF
:10032000DF92EF92FF921F93CF93DF93CDB7DEB7AB
:100330002C970FB6F894DEBF0FBECDBF3BE0E32E87
:1003400032E0F32E811104C094E0E92E92E0F92E00
:1003500010E08AE0882E912CA12CB12C411551057A
:1003600061057105A1F480E3F7012C960FB6F894AE
:10037000DEBF0FBECDBFDF91CF911F91FF90EF90F9
:10038000DF90CF90BF90AF909F908F901994CC2426
:10039000C394D12CCC0EDD1EC10ED11CCB01BA01F1
:1003A000A50194010E94C009F42FE52F605D7F4FE5
:1003B0008F4F9F4FD6016C931F5FA9016F2F7E2F28
:1003C000411551056105710511F7112359F01150BF
:1003D000E1E0F0E0EC0FFD1FE10FF11D8081F7017E
:1003E0001995F3CF2C960FB6F894DEBF0FBECDBF94
:1003F000DF91CF911F91FF90EF90DF90CF90BF9052
:10040000AF909F908F9008959091C00095FFFCCF82
:100410008093C60008959091C80095FFFCCF80930B
:10042000CE0008950F931F93CF938C01C0E0F80185
:10043000EC0FF11D8081882321F00E940B02CF5F19
:10044000F6CFCF911F910F9108950F931F93CF93E4
:100450008C01C0E0F801EC0FF11D8081882321F0B0
:100460000E940402CF5FF6CFCF911F910F910895A4
:10047000CF93DF93EC010E9425028FE192E00E946E
:100480002502CE010E9412028FE192E0DF91CF910E
:100490000C9412021092A90360E080E00E947101A6
:1004A00060E081E00E94710182E292E00C943802E7
:1004B00081E08093A90361E080E00E94710161E026
:1004C00081E00E94710181E392E00C943802109265
:1004D000B00022E02093B1002FB7F8941092B20040
:1004E0003091B2003230E0F32FBF615071098109C1
:1004F000910991F71092B1000895CF93C82F8460AD
:100500000E947A0161E070E080E090E00E94670262
:100510008C2F8B7F0E947A0162E370E080E090E094
:10052000CF910C946702CF936860C82FC295C07FAB
:10053000C62B807F862B0E947D028C2FCF910C943E
:100540007D02811180E460E080680E94930262E392
:1005500070E080E090E00C9467020F931F93CF93BC
:100560008C01C0E0F80181918F01882369F0CA30C5
:10057000C9F061E00E94930262E370E080E090E0E5
:100580000E946702CF5FEECFCA3061F061E080E287
:100590000E94930262E370E080E090E00E946702B4
:1005A000CF5FF2CFCF911F910F9108950F931F93BB
:1005B000CF938C01C0E0F801EC0FF11D80818823FE
:1005C00059F061E00E94930262E370E080E090E005
:1005D0000E946702CF5FEFCFCF911F910F910895D7
:1005E000CF92DF92EF92FF926B017C0168EE73E095
:1005F00080E090E00E94670281E0C81AD108E1081B
:10060000F108A1F7FF90EF90DF90CF900895CF937E
:10061000DF93CCE3DFEFE5EDE80FEF3408F034C211
:100620000E2E000CFF0B8827E75EFC4F8F4F0C94BB
:10063000DF0969044405960444054405440544055E
:100640004405440544054405440544054405440562
:100650004405440544054405440544054405AD04EA
:10066000890344059F04E2046803440511051F043F
:1006700044053D04A7034405440544054405B3046B
:10068000C5035B044405440544054405E303010434
:100690004405440544054405440544054405AD04AA
:1006A000890344059F04E2046803440511051F04FF
:1006B00044053D04A7034405440544054405B3042B
:1006C000C5035B044405440544054405E3030104F4
:1006D000C09116026C2F8FEF0E94FA006C2F8FEFE3
:1006E0000E94E5006C2F8FEF0E94D0006C2F8FEFDF
:1006F0000E94BB0086E4809315026FE372E084E001
:1007000092E00E94120A8FE392E0DF91CF910C9465
:100710003802C09116026C2F81E00E94FA006C2F03
:1007200081E00E94E5006C2F81E00E94D0006C2FD8
:1007300081E00E94BB0082E48093150265E472E0D0
:1007400084E092E00E94120A85E492E0DECFC0913C
:1007500016026C2F8FEF0E94FA006C2F8FEF0E9411
:10076000BB006C2F81E00E94E5006C2F81E00E94AD
:10077000D0008CE4809315026FE672E084E092E092
:100780000E94120A8FE692E0C0CFC09116026C2F31
:1007900081E00E94FA006C2F81E00E94BB006C2F68
:1007A0008FEF0E94E5006C2F8FEF0E94D00082E552
:1007B0008093150267E872E084E092E00E94120ADA
:1007C00087E892E0A2CFC09116026C2F81E00E94D0
:1007D000FA006C2F8FEF0E94E5006C2F81E00E94E1
:1007E000D0006C2F8FEF0E94BB0088E5809315022C
:1007F00069E472E084E092E00E94120A89E492E0E7
:1008000084CFC09116026C2F8FEF0E94FA006C2FDC
:1008100081E00E94E5006C2F8FEF0E94D0006C2FCA
:1008200081E00E94BB0089E58093150262E572E0D9
:1008300084E092E00E94120A82E592E066CF60E0D6
:1008400080E00E94FA00C09116026C2F8FEF0E9488
:10085000E50060E080E00E94D0006C2F8FEF0E94E6
:10086000BB0089E4809315026CE572E084E092E0BD
:100870000E94120A84E692E048CFC09116026C2FC3
:100880008FEF0E94FA0060E080E00E94E5006C2F8C
:100890008FEF0E94D00060E080E00E94BB008BE4FC
:1008A0008093150264E772E084E092E00E94120AED
:1008B0008CE792E02ACF0E940F0183E58093150216
:1008C0006DE872E084E092E00E94120A8DE892E006
:1008D0001CCF809116028C3E20F48C5E8093160211
:1008E00002C0D093160282E992E00E942502409154
:1008F000160250E070E060E080E00E948B018FE122
:1009000092E00E94250282E992E00E941202409148
:10091000160250E070E060E081E00E948B018FE100
:1009200092E00E9412028091150275CE809116020B
:10093000803510F08451D2CFC0931602D4CF1092DC
:10094000AA038091A903882321F0DF91CF910C9411
:100950004A02DF91CF910C94580281E08093AA0360
:100960008DE992E0D2CE8091A803882349F01092BD
:10097000A80360E082E00E9471018CEA92E0C5CE9B
:100980008091A703882331F01092A70360E083E0F1
:100990000E9471018091A603882351F01092A60352
:1009A00060E082E00E94710160E083E00E947101DA
:1009B00081E08093A80361E082E00E94710184ECF1
:1009C00092E0A3CE8091A703882349F01092A70359
:1009D00060E083E00E94710182ED92E096CE80910A
:1009E000A803882331F01092A80360E082E00E94FF
:1009F00071018091A603882351F01092A60360E054
:100A000082E00E94710160E083E00E94710181E058
:100A10008093A70361E083E00E9471018BEE92E076
:100A200074CE8091A603882369F01092A60360E03B
:100A300082E00E94710160E083E00E9471018AEF10
:100A400092E063CE8091A803882331F01092A8032E
:100A500060E082E00E9471018091A703882331F059
:100A60001092A70360E083E00E94710181E080930F
:100A7000A60361E082E00E94710161E083E00E94D0
:100A800071018EE093E041CEDF91CF9108958F9276
:100A90009F92AF92BF92FF920F931F93CF93DF93DA
:100AA00000D000D000D01F921F92CDB7DEB76CE807
:100AB00073E084E092E00E94090A892B89F080E0CB
:100AC0000E94A10281E293E00E94D60284E092E0BB
:100AD0000E94AD0264E072E08CE893E00E94120A8A
:100AE00060911B0270911C0280911D0290911E0268
:100AF0000091000210910102209102023091030244
:100B0000601771078207930739F1673E23E0720788
:100B10008105910589F568E273E0CE0101960E9496
:100B2000120A81E00E94A10281E393E00E94D602B2
:100B3000CE0101960E94AD0280911B0290911C0291
:100B4000A0911D02B0911E028093000290930102B9
:100B5000A0930202B09303022B960FB6F894DEBF67
:100B60000FBECDBFDF91CF911F910F91FF90BF902E
:100B7000AF909F908F900895611571058105910543
:100B800059F580E38983E1E0A1E0B0E0AC0FBD1F3F
:100B9000AE0FB11D80E28C93A1E0AE0F21E030E0FA
:100BA0002C0F3D1F2A0F311DD90183E68C93A2E043
:100BB000AE0F81E090E08C0F9D1F8A0F911DDC012C
:100BC0008DE68C93ED5FA1E0B0E0AC0FBD1FAE0FE2
:100BD000B11DFD011082A5CFE0E02AE0822E912C0C
:100BE000A12CB12C0E2F10E0FF24F394FE0E16164C
:100BF000170618061906A4F4A1E0B0E0AC0FBD1F5B
:100C00000A0F1B1FA50194010E94C009605D7F4F60
:100C10008F4F9F4FF8016083B901CA01EF2DE2CFDA
:100C20009FEF9E0F892FA92FA81BA81708F0ACCF04
:100C300061E070E06C0F7D1F6A0F711DDB014C914C
:100C400021E030E02C0F3D1F280F311DD9015C91B0
:100C5000DB015C93D9014C938150E5CF1F920F9239
:100C60000FB60F9211248F939F93809178009091EB
:100C700079009093AD038093AC039F918F910F9077
:100C80000FBE0F901F9018951F920F920FB60F92E4
:100C900011242F933F935F936F937F938F939F9331
:100CA000AF93BF938091260190912701209121015C
:100CB00026FF19C090938B0380938A0380912101B2
:100CC0008F7B8093210180E28ABBBF91AF919F917E
:100CD0008F917F916F915F913F912F910F900FBEF8
:100CE0000F901F90189520918A0330918B03821BDF
:100CF000930B64E770E00E948A09613981E078070C
:100D000010F067EE73E0CB01B0E0A0E08093170233
:100D100090931802A0931902B0931A021092210125
:100D2000809173008F7D8093730010929D03CDCFCF
:100D30001F920F920FB60F9211248F939F93AF9330
:100D4000BF9380919E0390919F03A091A003B091C7
:100D5000A1030196A11DB11D80939E0390939F0353
:100D6000A093A003B093A103BF91AF919F918F91E6
:100D70000F900FBE0F901F90189582E084BD93E0F6
:100D800095BD99EF97BD80936E0078941092C50041
:100D900027E62093C40098E19093C10086E08093F9
:100DA000C2001092CD002093CC009093C900809394
:100DB000CA001092B90088E48093B80084E0809360
:100DC000BC006B9A81E8809390009AE09093910028
:100DD000109299001092980080910101886380938D
:100DE000010189EA8093A0009093A1001092A900CC
:100DF0001092A8001092AB001092AA001092AD00C1
:100E00001092AC008FEF81B912B8259A2D98579A9D
:100E10005F9880910A018D7F80930A0180910B0178
:100E20008D7F80930B0180917E00816080937E0096
:100E300080E480937C008FE880937A0080917A0030
:100E4000806480937A0062E370E080E090E00E942A
:100E5000F00288E30E947A0188E30E947D0265E047
:100E600070E080E090E00E94F00288E30E947A0146
:100E700088E30E947D0266E970E080E090E00E94D5
:100E8000670288E30E947A0188E30E947D0266E996
:100E900070E080E090E00E94670288E20E947A01A0
:100EA00088E20E947D0266E970E080E090E00E94A6
:100EB000670260E088E20E94930262E370E080E0F3
:100EC00090E00E94670260E088E00E94930262E383
:100ED00070E080E090E00E94670260E081E00E94A4
:100EE000930262E070E080E090E00E94F00260E037
:100EF00086E00E94930262E370E080E090E00E944E
:100F0000670260E08CE00E94930262E370E080E0A0
:100F100090E00E9467020E943601882391F080E8E9
:100F20000E941F0180E00E941F0181E20E941F01B8
:100F300084E98093BC0061E070E080E090E00E9472
:100F4000F002C0E070E060E08C2F0E944B01CF5FA8
:100F5000C430C1F780E00E94A10288E393E00E94C0
:100F6000D60281E00E94A10289E493E00E94D602A9
:100F70006CED75E080E090E00E94F00260E081E0BE
:100F80000E94930262E070E080E090E00E94F00234
:100F90000E940F010E9447058AE593E00E943802F3
:100FA00089E693E00E94380287EE282E83E0382EEF
:100FB00094EF892E99249394A12CB12C11E00AE08E
:100FC0008FB7F894C0909E03D0909F03E090A00349
:100FD000F090A1038FBF8091B7039091B803A091C7
:100FE000B903B091BA03A7019601281B390B4A0B2C
:100FF0005B0BDA01C90186399105A105B10508F439
:1010000049C0C092B703D092B803E092B903F092FE
:10101000BA0380919D038823A9F010922101809149
:1010200073008F7D8093730010929D0387EE93E091
:10103000A0E0B0E08093170290931802A0931902E9
:10104000B0931A0210939D035F9A6AE070E080E00B
:1010500090E00E9467025F9810922501109224018F
:1010600090E29ABB80917300806280937300A2EC3F
:10107000A09321018091170290911802A09119026A
:10108000B0911A0280931B0290931C02A0931D0240
:10109000B0931E0240911B0250911C0260911D02F0
:1010A00070911E022091B603453651056105710508
:1010B00054F0222321F110928000109281002D988B
:1010C0001092B6031CC040315105610571050CF04A
:1010D000B4C021110CC0B0E4B09380000093810033
:1010E0003092890020928800259A1093B603C0920E
:1010F000B203D092B303E092B403F092B5038091AF
:10110000AE039091AF03A091B003B091B103A701DA
:101110009601281B390B4A0B5B0BDA01C901843697
:101120009105A105B10550F12FB7C092AE03D09241
:10113000AF03E092B003F092B103F8948091AC0356
:101140009091AD032FBF20917A00206420937A0004
:101150008D3B32E0930708F4AAC01092AB03809154
:10116000AA03882359F08091A9039091AB03992396
:1011700009F4A4C0811102C00E9458020E944705D0
:101180008091A803811109C08091A703811105C036
:101190008091A603882309F4ACC02FB7F89460911E
:1011A0009E0370919F038091A0039091A1032FBF94
:1011B000C090A203D090A303E090A403F090A503F5
:1011C0009B01AC012C193D094E095F0969017A01A7
:1011D00034E1C316D104E104F10408F48AC0609339
:1011E000A2037093A3038093A4039093A50328EE16
:1011F00033E040E050E00E949E099B01AC01243F97
:1012000081E038074105510508F05EC0AFEFBFE04F
:101210000E94E709A50194010E949E09E9018091BD
:10122000A603882309F459C0B90182E00E944B014A
:10123000BE0183E00E944B015CC08091B20390919B
:10124000B303A091B403B091B50326013701481A46
:10125000590A6A0A7B0A211122C0049FC001059F16
:10126000900D1124B0E0A0E0481659066A067B06EE
:1012700008F445CFC092B203D092B303E092B40316
:10128000F092B50320E42093800000938100309217
:10129000890020928800259A1093B60330CF30E55C
:1012A000431651046104710408F429CF04CF843F2C
:1012B000914008F054CF1093AB0351CF882309F429
:1012C0005DCF0E944A025ACFA1E0B0EF0E94F5091B
:1012D000685E7348814C9F4F9DCF8091A8038823FF
:1012E00021F0B90182E00E944B018091A703811196
:1012F0009FCF8091C00087FF04C08091C6000E94EC
:1013000007038091C80087FF5BCE8091CE000E94CA
:10131000070355CEAA1BBB1B51E107C0AA1FBB1F69
:10132000A617B70710F0A61BB70B881F991F5A9571
:10133000A9F780959095BC01CD010895A1E21A2EE0
:10134000AA1BBB1BFD010DC0AA1FBB1FEE1FFF1F69
:10135000A217B307E407F50720F0A21BB30BE40BB9
:10136000F50B661F771F881F991F1A9469F7609500
:101370007095809590959B01AC01BD01CF010895BA
:10138000052E97FB1EF400940E94D70957FD07D045
:101390000E949E0907FC03D04EF40C94D709509587
:1013A0004095309521953F4F4F4F5F4F0895909551
:1013B0008095709561957F4F8F4F9F4F0895EE0FE9
:1013C000FF1F881F8BBF0790F691E02D19940E9494
:1013D000FA09A59F900DB49F900DA49F800D911DBB
:1013E00011240895B7FF0C94E7090E94E709821BB6
:1013F000930B0895A29FB001B39FC001A39F700DEE
:10140000811D1124911DB29F700D811D1124911D0C
:101410000895FB01DC018D91019080190110D9F331
:10142000990B0895FB01DC0101900D920020E1F77A
:061430000895F894FFCFBF
:10143600FFFFFFFF53544F50000000000000000064
:10144600000000000053C8E7030000E70300000D9A
:101456000A0044524C3A2057594C41435A4F4E4584
:101466000044524C3A20574C41435A4F4E45005087
:10147600525A4F440054594C00424F4B2D4C45573D
:101486004F00424F4B2D505241574F00534B4F5335
:101496002D504C00534B4F532050525A4F442D4C15
:1014A60045574F00534B4F532D505000534B4F53FE
:1014B6002050525A4F442D505241574F0053544FCB
:1014C6005000507265646B6F73633A200044524C4F
:1014D6003A2054525942204155544F004B494552E7
:1014E600554E4B3A204C4557592057594C41435A73
:1014F6004F4E59004B494552554E4B3A204C455795
:1015060059004B494552554E4B3A20505241575976
:101516002057594C41435A4F4E59004B4945525555
:101526004E4B3A2050524157590041574152594A61
:101536004E453A2057594C41435A4F4E4500415764
:101546004152594A4E453A20574C41435A4F4E450F
:10155600004B6965723A20004272616B2F4D6178CB
:1015660000447973743A2000202053414D4F43487C
:101576004F445A494B20202000202020474F544FEB
:101586005759203A2920202020003D3D3D20474F35
:10159600544F5759203D3D3D00462F422F4C2F5268
:1015A6002F582F592F492F4B2F532F2B2F2D2F4489
:0A15B6002F412F512F452F48000050
:00000001FF
